{
  "_format": "hh-sol-artifact-1",
  "contractName": "ethPayment",
  "sourceName": "contracts/ethPayment.sol",
  "abi": [
    {
      "inputs": [],
      "stateMutability": "nonpayable",
      "type": "constructor"
    },
    {
      "anonymous": false,
      "inputs": [
        {
          "indexed": false,
          "internalType": "string",
          "name": "orderId",
          "type": "string"
        },
        {
          "indexed": false,
          "internalType": "address",
          "name": "from",
          "type": "address"
        },
        {
          "indexed": false,
          "internalType": "uint256",
          "name": "amount",
          "type": "uint256"
        },
        {
          "indexed": false,
          "internalType": "uint256",
          "name": "timestamp",
          "type": "uint256"
        }
      ],
      "name": "PaymentReceived",
      "type": "event"
    },
    {
      "inputs": [],
      "name": "owner",
      "outputs": [
        {
          "internalType": "address",
          "name": "",
          "type": "address"
        }
      ],
      "stateMutability": "view",
      "type": "function"
    },
    {
      "inputs": [
        {
          "internalType": "string",
          "name": "_orderId",
          "type": "string"
        }
      ],
      "name": "payOrder",
      "outputs": [],
      "stateMutability": "payable",
      "type": "function"
    },
    {
      "inputs": [],
      "name": "withdraw",
      "outputs": [],
      "stateMutability": "nonpayable",
      "type": "function"
    }
  ],
  "bytecode": "0x6080604052348015600f57600080fd5b50336000806101000a81548173ffffffffffffffffffffffffffffffffffffffff021916908373ffffffffffffffffffffffffffffffffffffffff1602179055506106d68061005f6000396000f3fe6080604052600436106100345760003560e01c80633ccfd60b146100395780638da5cb5b14610050578063966a7dca1461007b575b600080fd5b34801561004557600080fd5b5061004e610097565b005b34801561005c57600080fd5b5061006561018e565b60405161007291906102ba565b60405180910390f35b6100956004803603810190610090919061042f565b6101b2565b005b60008054906101000a900473ffffffffffffffffffffffffffffffffffffffff1673ffffffffffffffffffffffffffffffffffffffff163373ffffffffffffffffffffffffffffffffffffffff1614610125576040517f08c379a000000000000000000000000000000000000000000000000000000000815260040161011c906104d5565b60405180910390fd5b60008054906101000a900473ffffffffffffffffffffffffffffffffffffffff1673ffffffffffffffffffffffffffffffffffffffff166108fc479081150290604051600060405180830381858888f1935050505015801561018b573d6000803e3d6000fd5b50565b60008054906101000a900473ffffffffffffffffffffffffffffffffffffffff1681565b600034116101f5576040517f08c379a00000000000000000000000000000000000000000000000000000000081526004016101ec90610541565b60405180910390fd5b6000815111610239576040517f08c379a0000000000000000000000000000000000000000000000000000000008152600401610230906105ad565b60405180910390fd5b7fdf6519d3a50102ba57328e8e79560c63a9d8b9930c9981f70b3a055fe20441f58133344260405161026e9493929190610654565b60405180910390a150565b600073ffffffffffffffffffffffffffffffffffffffff82169050919050565b60006102a482610279565b9050919050565b6102b481610299565b82525050565b60006020820190506102cf60008301846102ab565b92915050565b6000604051905090565b600080fd5b600080fd5b600080fd5b600080fd5b6000601f19601f8301169050919050565b7f4e487b7100000000000000000000000000000000000000000000000000000000600052604160045260246000fd5b61033c826102f3565b810181811067ffffffffffffffff8211171561035b5761035a610304565b5b80604052505050565b600061036e6102d5565b905061037a8282610333565b919050565b600067ffffffffffffffff82111561039a57610399610304565b5b6103a3826102f3565b9050602081019050919050565b82818337600083830152505050565b60006103d26103cd8461037f565b610364565b9050828152602081018484840111156103ee576103ed6102ee565b5b6103f98482856103b0565b509392505050565b600082601f830112610416576104156102e9565b5b81356104268482602086016103bf565b91505092915050565b600060208284031215610445576104446102df565b5b600082013567ffffffffffffffff811115610463576104626102e4565b5b61046f84828501610401565b91505092915050565b600082825260208201905092915050565b7f436869206368752073686f70206d6f692064756f6320727574207469656e0000600082015250565b60006104bf601e83610478565b91506104ca82610489565b602082019050919050565b600060208201905081810360008301526104ee816104b2565b9050919050565b7f536f207469656e2070686169206c6f6e20686f6e203000000000000000000000600082015250565b600061052b601683610478565b9150610536826104f5565b602082019050919050565b6000602082019050818103600083015261055a8161051e565b9050919050565b7f5068616920636f204f7264657220494400000000000000000000000000000000600082015250565b6000610597601083610478565b91506105a282610561565b602082019050919050565b600060208201905081810360008301526105c68161058a565b9050919050565b600081519050919050565b60005b838110156105f65780820151818401526020810190506105db565b60008484015250505050565b600061060d826105cd565b6106178185610478565b93506106278185602086016105d8565b610630816102f3565b840191505092915050565b6000819050919050565b61064e8161063b565b82525050565b6000608082019050818103600083015261066e8187610602565b905061067d60208301866102ab565b61068a6040830185610645565b6106976060830184610645565b9594505050505056fea2646970667358221220a64ac249165de525537e23385d28729f0332450130df4f26dc916fa64924f1fe64736f6c634300081c0033",
  "linkReferences": {},
  "deployedLinkReferences": {}
}